:020000040800F2
:10000000F0060020A10100088D180008BB150008AB
:1000100089180008F31100081721000800000000EB
:10002000000000000000000000000000891A000825
:10003000F71100080000000071190008751B000886
:10004000BB010008BB010008BB010008BB010008A0
:10005000BB010008BB010008BB010008BB01000890
:10006000BB010008BB010008BB010008BB01000880
:10007000BB010008BB010008BB010008BB01000870
:10008000BB010008BB010008BB010008BB01000860
:10009000BB010008BB010008BB010008BB01000850
:1000A000BB010008BB010008BB010008BB01000840
:1000B000BB0100083D1C0008BB010008BB01000893
:1000C000BB010008BB010008BB010008BB01000820
:1000D000BB0100081D1F0008BB010008BB01000890
:1000E000F9110008BB010008BB01000800F002F88C
:1000F00000F047F80AA090E8000C82448344AAF17B
:100100000107DA4501D100F03CF8AFF2090EBAE878
:100110000F0013F0010F18BFFB1A43F0010318473B
:1001200098240000B8240000103A24BF78C878C191
:10013000FAD8520724BF30C830C144BF04680C60ED
:10014000704700000023002400250026103A28BF35
:1001500078C1FBD8520728BF30C148BF0B60704739
:10016000662902F0DD81002070471FB500F004FB16
:1001700004000020002102F005F8E0601FBD10B56A
:1001800010BD00F0F9FB1146FFF7EFFF01F0E9FFAA
:1001900000F017FC03B4FFF7F2FF03BC00F05AFCB9
:1001A0000948804709480047FEE7FEE7FEE7FEE70B
:1001B000FEE7FEE7FEE7FEE7FEE7FEE70448054947
:1001C000054A064B70470000791B0008ED00000847
:1001D000F0000020F0060020F0020020F0020020D5
:1001E0000FB41CB5074B06AA7B44694600900598DE
:1001F00000F0A9FA0020694600F0B8FA1CBC5DF8CE
:1002000014FB0000810500002DE9F0474FF0000AC3
:1002100089460446C0F820A02046E16888470028A7
:1002200076D0252806D0D4E901219047206A401CC9
:100230002062F1E7E168204600258847C4F81CA049
:1002400006460027C4F818A02A2E09D0304601F02F
:1002500078FF38B304EB8708303EC8F8186019E01F
:1002600059F8041B204604EB87029161E168884736
:10027000012F064618D1E069002820DA25F0200574
:100280001DE0D8F8180000EB800006EB4000303885
:10029000C8F818002046E1688847064601F051FF7B
:1002A0000028EED1012F0AD02E2E08D12046E16879
:1002B00088477F1C0646022F45F02005C4DBA06955
:1002C000002803DA404245F00105A061E80701D0AB
:1002D00025F01005B6B1A6F14100192802D8203644
:1002E00045F400654A463146204625604D46FFF7F5
:1002F00037FF58B1012806D0ED1D25F0070000F1A9
:10030000080989E704E005F1040985E730468AE732
:10031000206ABDE8F08770477047704770472DE945
:10032000FF4F0C461E464FF0FF378BB0D2E900015D
:10033000DDF860800A908A46C1F30A5505B93D464A
:10034000002108464FF00000BAF1000F00F4400011
:1003500005DA00EB80004FF4400101EA50004FEA5B
:100360009059B9F1010F00DDB9460A9850EA4A00E8
:100370000ED044F61050A5F2FF3545432F14B8F1C6
:10038000000F1ED07542291E1EDDC9F100021CE0BF
:10039000B8F1010F4FF0000001D0302103E0F2432B
:1003A00005E02154401CB042FBDB30460022002116
:1003B00021540B99C1F80880C1E900200FB0BDE8B5
:1003C000F08FBD1B6D1CDEE74A4600DA694206A8C5
:1003D00000F05CFA06AB93E8070003AB83E8070084
:1003E00050460A9900F03DFB8DE80700A0F500504B
:1003F0001F3800900398002D0ADD42F21F014A4683
:100400000844002303A90390684600F0A6FD09E014
:10041000A0F500504A461F38002303A90390684600
:1004200000F0B0FD8DE807000004000C03D04FF091
:10043000FF30410800E01046B8F1000F03D0002261
:10044000009215461EE0751E05D400F099F9303271
:1004500062556D1EF9D5B3460122084302D0002231
:100460007F1C04E02078302801D100227F1E002A62
:10047000099784D01DE0112D07DA00F081F93032A0
:1004800062556D1C50EA0102F5D1084302D0009874
:10049000C8B10EE00021681E05E0235C625C635475
:1004A0002254401E491C8142F7DBAB46A81B401E6C
:1004B0000990002004F80B000B98099AC0F80880F6
:1004C000C0E9002B7AE711264FF0000857E72DE925
:1004D000F04F88460446D21D22F0070191B0D1E9C1
:1004E0000001CDE90A0101F018FE02460B98C00F89
:1004F00001D02D2007E02068810701D52B2002E0E4
:10050000202101EAC000032A099001D0072A05DB57
:1005100003464146204600F079F90BE12078800639
:1005200001D5E06900E00620B8F1650F814606D0EC
:10053000B8F1660F18D0B8F1670F70D131E0002024
:10054000B9F1110F009001DB112301E009F1010362
:100550000AAA01A90CA8FFF7E2FEDDE90C7000264B
:1005600009F10105834647E001204B4600904FF01A
:1005700000470AAA01A90CA8FFF7D1FEDDE90DB0DA
:100580000C995D46002610B909F101000D18B9EB70
:10059000050003D4C0F1FF3609F10105A5EB090000
:1005A0002BE0B9F1010F01DA4FF001090020B9F198
:1005B000110F0090484601DD112300E003460AAA0E
:1005C00001A90CA8FFF7ABFEDDE90C704D46002633
:1005D0008346207800070AD4AB4500DA5D4601A8BF
:1005E000012D04DD411911F8011C302907D04F45B8
:1005F00002DA17F1040F04DA012082460FE06D1EC3
:10060000EEE7002F02DCED1B3E4403E0781CA8421D
:1006100000DD7D1CB81B00F1010A4FF00047207877
:10062000000703D4AA4501DB4FF0FF3A0021B7F1E0
:10063000004F0DF143088DF8431024D002202B23E6
:10064000002F01DA7F422D230A21021EA0F10100B2
:1006500000DC5FB197FBF1FC97FBF1F201FB1C7C26
:1006600017460CF1300C08F801CDEEE7A8F10100B7
:1006700003702188090501D5452100E06521A0F11D
:10068000010800F8011C09980FA9A1EB0807FF1D3C
:1006900000B10120411901EBEA70A1693844081A40
:1006A000401EA0612078C00602D42046AFF300802F
:1006B000099828B1D4E901219047206A401C2062A2
:1006C0002078C00622D52046AFF300801EE0002E21
:1006D00004DBB34502DD01A8805D00E03020D4E9F1
:1006E00001219047206A401C2062761CAAF101007B
:1006F0005FEA000A0AD100F03FF8C0680168405C78
:10070000D4E901219047206A401C2062281EA5F1EF
:100710000105DCDC07E0D4E9012118F8010B904762
:10072000206A401C2062381EA7F10107F3DC204636
:10073000AFF30080032011B041E6000001694A1CBC
:1007400002610878704700B58FB0CDE90131002112
:10075000059105497944CDE9031011466846FFF734
:1007600053FD0FB000BD0000E5FFFFFF0A6802F86F
:10077000010B0A607047000000487047AC00002081
:1007800030B5B0F10A024FEA900E71F100034EEA63
:10079000817EB0EB0E0061EB91014FEA101E4EEA34
:1007A000017E10EB0E0041EB11114FEA102E4EEAC4
:1007B000016E10EB0E0041EB11214FEA104E4EEA94
:1007C000014E10EB0E0041EB1141401841F10001C8
:1007D0004FEAD00040EA41704FEAD10110EB8005AA
:1007E0004FEA810444EA907444EB01046D1944EB30
:1007F0000404521BA3414FF0000348BF0A3200D546
:1008000030BD401C41F1000130BD00002DE9F04138
:100810001F46044603260168072A01F4006004DB32
:1008200008B116A505E016A503E008B115A500E07E
:1008300015A521F010002060A069C01EA0610FB1B5
:10084000401EA0612046AFF300804FB1D4E90121E2
:1008500038469047206A401C2062C01C206206E097
:10086000206AFAE7D4E9012115F8010B9047761EBA
:10087000F8D22046AFF30080BDE8F0814E414E0033
:100880006E616E00494E4600696E66002DE9F047C4
:10089000814616468AB0354878440DC88DE80D006B
:1008A00032487844801C03AC0DC884E80D0041F642
:1008B0009B300844372190FBF1F290FBF1F5A5F154
:1008C000800501FB12041B3C02D56442012000E0BC
:1008D0000020DFF898A080460027FA44AAF1BE0A5B
:1008E0000EE0E0070AD03246684607EB47010123D5
:1008F0000AEB810100F046FB8DE8070064107F1CC5
:10090000002CEED1194F7F44AE3F19E0E80715D017
:1009100007EB04100DF1180A90E80E008AE80E00AB
:10092000C068F04201D1981908903246012306A907
:1009300003A800F027FB03AB83E807006D10641CDD
:10094000002DE3D14FF0010332466946B8F1000FA4
:1009500003A802D000F001FB01E000F013FBC9E99D
:100960000001C9F808200AB0BDE8F087041D0000A6
:10097000004870478C0000207546FFF7F9FFAE462F
:1009800005006946534620F00700854618B020B59B
:10099000FFF714FCBDE820404FF000064FF00007C1
:1009A0004FF000084FF0000B21F00701AC46ACE817
:1009B000C009ACE8C009ACE8C009ACE8C0098D4684
:1009C000704710B50446AFF300802046BDE81040E4
:1009D000FFF7E0BB4FF0013C50F8042B51F8043B0B
:1009E0009A4221D1A2EB0C03934313EACC1317D103
:1009F00050F8042B51F8043B9A4215D1A2EB0C039A
:100A0000934313EACC130BD150F8042B51F8043B59
:100A10009A4209D1A2EB0C03934313EACC13DBD027
:100A20004FF00000704700BFD01A01BAB1FA81F14F
:100A300001F0180122FA01F0CB40C1F12001DBB234
:100A4000C0B2C01A2CFA01F3D11A914311EAC311B2
:100A5000E6D1704701491820ABBEFEE72600020030
:100A600070475FEA400C08BF91F0000F4FEA8C23FB
:100A70004FEAC12243EA51514FEA1C5018BF00F51A
:100A8000F0404FEA300018BF41F000415FEA6C5C73
:100A900000F02980BCF1FF3F08BF40F08040704764
:100AA000130C06BF12044FF0100C4FF0000C130E85
:100AB00004BF12020CF1080C130F04BF12010CF159
:100AC000040C930F04BF92000CF1020CD30F04BF6F
:100AD00052000CF1010C11464FF00002A0F11F0072
:100AE000A0EB0C00704711F0004F08BF704731F0C9
:100AF00000413FF4D5AF0B0C06BF09044FF0100CBA
:100B00004FF0000C0B0E04BF09020CF1080C0B0F88
:100B100004BF09010CF1040C8B0F04BF89000CF118
:100B2000020CCB0F04BF49000CF1010CCCF12003E7
:100B3000A0EB0C0022FA03F302FA0CF241EA0301E3
:100B400000F10100704720F07F4C80EA030023F0A1
:100B50007F47ACEB070303F57C5300F0004003F143
:100B6000FF032DE980494FEA154B09B44FEA1443BE
:100B700025EA0B4E24EA03480FF2042606EB13275E
:100B800049083E785FEA320203FB0667C7F50007B3
:100B900007FB06F64FEA54374FEAD64606F102063F
:100BA00007FB066CCCF1005C4FEA1C472CEA074CB3
:100BB00007FB06F40CFB06F504EB15464FEA961608
:100BC00034BF00204FF000404FEAD13706FB07FC4E
:100BD0004FEA1C4C0CFB0BF7D21B03FB0CF761EB31
:100BE00007010CFB0EF7B0EB074072EB17420CFB52
:100BF00008F734BFA2EB0742B2EB074261EB1741A3
:100C00004FEA0C444FEA910706FB07FC4FEA1C4CE5
:100C10000CFB0BF7B0EBC74072EB573203FB0CF742
:100C200034BFA2EBC742B2EBC74261EB57310CFBBA
:100C30000EF7B0EBC70072EB57720CFB08F734BF2E
:100C4000A2EBC702B2EBC70261EB5771039F4FEAF9
:100C5000816141EA921104EBCC044FEAD1374FEAAB
:100C6000826206FB07FC42EA90124FEA80604FEA7C
:100C70001C4C0CFB0BF7D21B03FB0CF761EB0701C1
:100C80000CFB0EF7B0EB074072EB17420CFB08F7BA
:100C900034BFA2EB0742B2EB074261EB17414FEAC8
:100CA0008C554FEA910704EB9C2406FB07FC4FEAA6
:100CB0001C4C0CFB0BF7B0EBC74072EB573203FB3D
:100CC0000CF734BFA2EBC742B2EBC74261EB57311E
:100CD0000CFB0EF7B0EBC70072EB57720CFB08F77A
:100CE00034BFA2EBC702B2EBC70261EB577115EB41
:100CF0004C254FEA816141EA92114FEA82624FEA44
:100D0000D13742EA901206FB07FC44F100044FEA97
:100D100080604FEA1C4C0CFB0BF7D21B03FB0CF75B
:100D200061EB07010CFB0EF7B0EB074072EB1742CB
:100D30000CFB08F734BFA2EB0742B2EB074261EBB2
:100D4000174115EB1C154FEA813141EA92414FEAF8
:100D5000823242EA90424FEA80304FEA0C7644F108
:100D6000000448EA03434EEA0B484FF0000EB2EB92
:100D7000080C71EB030724BF624639464EEB0E0E9A
:100D80004FF0000B0018524149414BEB0B0BB2EBFB
:100D9000080C71EB03077BF1000B24BF6246394658
:100DA0004EEB0E0E4FF0000B0018524149414BEB39
:100DB0000B0BB2EB080C71EB03077BF1000B24BFAC
:100DC000624639464EEB0E0E51EA020718BF46F056
:100DD000010616EB0E7655F1000254F1000103D521
:100DE000BDE88901BDE80088BDE88901BDE800488B
:100DF000B619524141EB0101A3F101037047808014
:100E00007F7E7D7C7B7A7978777676757473727164
:100E100071706F6E6E6D6C6C6B6A6A69686867661C
:100E200066656464636362616160605F5F5E5E5DAE
:100E30005D5C5C5B5B5A5A59595858575756565522
:100E400055555454535352525251515050504F4F84
:100E50004F4E4E4D4D4D4C4C4C4B4B4B4A4A4A49D4
:100E60004949484848474747474646464545454417
:100E70004444444343434342424242414141002BA4
:100E80009C4630D477002BD01CB54FEA370703B40B
:100E90004FF010004FF01001BAF1000F06D0BCF176
:100EA000000FDCBF40F0080040F008014FF00000E8
:100EB0000FBCBDE810400BF1010BBBF1010F08BFE7
:100EC0005FEA170722BF12F1010211F101014FF091
:100ED000004143F1000300F0004043EA0000704786
:100EE000F9D35708D0E746EA064613F1400F4FEA18
:100EF00016461FDD13F1200FDFBF16430A460021FF
:100F000020335B42BED0C3F1200746EA064602FA10
:100F100007F74FEA164646EA0706C3F1200722FA0A
:100F200003F201FA07F721FA03F14FF0000342EA56
:100F30000702A7E746EA020646EA06464FEA1646D1
:100F400046EA0106BCBF46EA0646360C4FF00003EF
:100F50004FF000024FF0000194E72DE9804C9A46D3
:100F6000934670B491E8380007C831EA400C48BF96
:100F700034EA430C03D5FFF7E6FDFFF780FFF0BC32
:100F8000BDE8008C2DE9804C9A46934670B491E8F8
:100F9000380007C810F0804F08BF13F0804F03D10E
:100FA00000F005F8FFF76BFFF0BCBDE8008C20F007
:100FB0007F4780EA030023F07F4C07EB0C03A3F587
:100FC0007C5300F00040A3F1FE0392F0000F00F00C
:100FD000B38095F0000F00F077802DE901494FEACA
:100FE00011404FEA144621EA004800FB06FC24EABF
:100FF000064708FB06F607FB08F800FB07F718EBA7
:1010000006484CEB164C4FEA124B18EB07484FEAD8
:1010100015464CEB174022EA0B4E0BFB06FC25EA6B
:1010200006470EFB06F607FB0EFE0BFB07F71EEB53
:10103000064E4CEB164C4FF000061EEB074E4CEBE9
:10104000174B18EB0B0840F1000018EB0E0B58EB98
:10105000000840F100008F1A4FF000013CBFC94367
:10106000661B14BFB5EB040C00213CBFC943F61B43
:101070004FEA17444EEA8E0E27EA04454FEA1C4712
:1010800004FB07622CEA074C05FB07F70CFB05F68F
:1010900004FB0CFC16EB074642EB174216EB0C4622
:1010A00042EB1C421BEB060658EB0202414146EAAA
:1010B0009E0601D5BDE80189B619524141EB0101F7
:1010C000A3F10103BDE801894FEA14454FEA114736
:1010D00024EA054621EA074C05FB07F406FB07F75F
:1010E0000CFB06F105FB0CFC11EB074144EB17442C
:1010F0004FEA124711EB0C4144EB1C4422EA074C27
:1011000005FB07F206FB07F70CFB06F605FB0CFCDC
:1011100016EB074642EB174216EB0C4642EB1C451A
:101120006A1854F1000148BF7047B619524141EBAB
:101130000101A3F10103704795F0000F37D04FEA8A
:1011400011424FEA144721EA024624EA074C02FB07
:1011500007F106FB07F70CFB06F402FB0CFC14EB93
:10116000074441EB17414FEA154714EB0C4441EBA0
:101170001C4125EA074C02FB07F506FB07F70CFBB1
:1011800006F602FB0CFC16EB074645EB174516EB83
:101190000C4645EB1C42121951F1000148BF704743
:1011A000B619524141EB0101A3F1010370474FEA27
:1011B00014454FEA114724EA054621EA074C05FB8E
:1011C00007F106FB07F70CFB06F24FF0000605FBE4
:1011D0000CFC12EB074241EB174112EB0C4251EBB6
:1011E0001C4148BF7047921841EB0101A3F1010374
:1011F000704700BFFEE7704710B54FF4005000F095
:1012000083F8A8B14FF496701749C8804FF080401A
:1012100000F06EFD00201449C8804FF0804000F0BF
:10122000B3FD0A2000F094FF4FF4005000F01EF8C8
:101230004FF4805000F068F8A8B14FF496700A4956
:10124000C8804FF0804000F09FFD00200649C88014
:101250004FF0804000F04CFD0A2000F079FF4FF481
:10126000805000F003F810BD4600002001490860DE
:10127000704700001404014010B50D21012000F05A
:10128000F1F80C21012000F0EDF800F02BF84FF4FC
:10129000005012490860002008710C20487101209C
:1012A0008871084600F044F84FF480500B490860FC
:1012B000002008710C20487101208871084600F058
:1012C00037F82820064908700020487088700120EF
:1012D000C870084600F0F8FA10BD000008000020B1
:1012E00004000020002006490860091D0860091D4F
:1012F0000860091D086003480149143108607047FF
:1013000000040140FFFF0F00014600200022074BB0
:101310001B6803EA0102054B14331B680B4013B131
:101320000AB1012000E000207047000000040140E5
:10133000002123498279002A3AD00A4612680368BC
:101340009A430B461A600A1D126803689A430B1DE4
:101350001A60027911440A6803681A430A60184A3D
:101360000832126803689A43154B08331A601A1D35
:10137000126803689A43124B0C331A604279102AA0
:101380000ED11A1F126803681A430D4B08331A60F6
:101390001A1D126803681A43094B0C331A600DE0DA
:1013A0000749427911440A6803681A430A6005E054
:1013B000027911440A6803689A430A607047000082
:1013C0000004014010B501210D2000F0E3FA0120D6
:1013D000214908801820C870032088701F4800F039
:1013E00061F802201C4908801820C870032088700A
:1013F0001A4800F057F84FF4005017490880282089
:10140000C870174800F04EF84FF480501249088019
:101410002820C870124800F045F8C0200E49088006
:10142000032088701C20C8700D4800F03BF84FF472
:101430008060094908800420C870084800F032F82C
:101440004FF4007004490880032088701820C87089
:10145000024800F027F810BD0000002000080140FD
:10146000000C014030B500228B071C0F0F2303FA3C
:1014700004F20B4B8C1053F824309343084C8D101E
:1014800044F8253023468C1053F824308C07240F61
:1014900000FA04F42343024C8D1044F8253030BD8B
:1014A000080001402DE9F0410246002500260020F9
:1014B00000230024002791F803C00CF00F0591F8D9
:1014C00003C00CF0100CBCF1000F03D091F802C067
:1014D0004CEA050591F800C0BCF1000F31D014684A
:1014E00000202BE04FF0010C0CFA00F3B1F800C023
:1014F0000CEA03069E4220D183004FF00F0C0CFA39
:1015000003F7BC4305FA03FC4CEA040491F803C05A
:10151000BCF1280F06D14FF0010C0CFA00FCC2F808
:1015200014C00AE091F803C0BCF1480F05D14FF098
:10153000010C0CFA00FCC2F810C0401C0828D1D3E2
:101540001460B1F800C0BCF1FF0F34DD5468002016
:101550002EE000F1080C4FF0010808FA0CF3B1F886
:1015600000C00CEA03069E4221D183004FF00F0C0D
:101570000CFA03F7BC4305FA03FC4CEA040491F8A7
:1015800003C0BCF1280F05D100F1080C08FA0CF8D3
:10159000C2F8148091F803C0BCF1480F07D100F1E4
:1015A000080C4FF0010808FA0CF8C2F81080401C33
:1015B0000828CED35460BDE8F08100BFFEE721B11A
:1015C000028842F48062028004E002884FF6FF3312
:1015D0001A400280704770B502460024002500239F
:1015E0000020958A138B1B0445EA030626F07F44EE
:1015F00004EA01068E4201D1012000E0002070BD06
:1016000021B1028842F00102028004E002884FF614
:10161000FE731A400280704710B50121480500F0A2
:10162000A9F900200A4988804BF6FF70C880002085
:1016300008814FF480604881000188810548086076
:10164000054800F023F801210348FFF7D9FF10BD3A
:1016500058000020A08601000054004021B10288FB
:1016600042F48072028004E002884FF6FF631A4061
:101670000280704721B1028842F40072028004E0C7
:1016800002884FF6FF531A40028070472DE9F0435D
:1016900085B004460D460026B1460427DFF8CC800D
:1016A000A6884FF6C0700640684600F083F9DDF862
:1016B00008802F48B8FBF0F01FFA80F946EA0906C7
:1016C000A68020884FF6FE71084020800026294918
:1016D000286888420CD828684000B8FBF0F087B230
:1016E000042F00DA04273E4309F10100208427E09B
:1016F000E8884BF6FF71884206D1286800EB40006D
:10170000B8FBF0F087B209E0286800EBC00101EBFC
:101710000010B8FBF0F087B247F48047C7F30B0026
:1017200008B947F0010747F4004006434FF49670AC
:1017300009FB00F04FF47A7190FBF1F0401C20841B
:10174000A683208840F00100208026884FF6F530DF
:101750000640A8886989084306432680A889298904
:101760000843208105B0BDE8F083000000127A0034
:1017700040420F00A08601000146088AC0B27047AF
:1017800012B141F0010102E04FF6FE7319400182EF
:1017900070470182704700002DE9F047012137486A
:1017A000FFF70DFF01213548FFF758FF00BF34490F
:1017B0003248FFF710FF0028F9D0002290212F486F
:1017C000FFF7DEFF00BF2F492C48FFF704FF00287A
:1017D000F9D000212948FFF7DCFF00BF2949891C07
:1017E0002648FFF7F8FE0028F8D001212348FFF72C
:1017F00035FF00BF22492148FFF7EDFE0028F9D050
:10180000012290211D48FFF7BBFF00BF1C49491C66
:101810001A48FFF7E0FE0028F8D000BF18493F3112
:101820001648FFF7D8FE0028F8D01448FFF7A4FFA9
:10183000040200211148FFF7C2FE01210F48FFF703
:1018400019FF00BF0E493F310C48FFF7C4FE0028C6
:10185000F8D00A48FFF790FF0443C4F347194846FD
:1018600000F0D7FC074600224FF07F5300F0E4FC65
:10187000054600F09DFCBDE8F087000000540040E4
:10188000010003008200070000BFFEE77047000070
:1018900010B525200B490870002048708870012081
:1018A000C870084600F010F81D2006490870022094
:1018B0004870002088700120C870084600F004F8C5
:1018C00010BD00000400002070B5002100230F228D
:1018D000C47804B3154C246804F4E064C4F5E064EF
:1018E000210AC1F10403CA40447804FA03F1847860
:1018F0001440214309010E4C0678A155047804F0E8
:101900001F050124AC4005786D11AD0005F1E025FF
:10191000C5F8004109E0047804F01F050124AC403B
:10192000044D0678761145F8264070BD0CED00E0B8
:1019300000E400E080E100E010B560200B49088081
:101940000120488000200881C8804FF0804000F0CE
:10195000CFF96020054908800120488000200881D7
:10196000C8804FF0804000F00FFA10BD4600002004
:101970007047000029B1064AD2690243044BDA617C
:1019800004E0034AD2698243014BDA6170470000E8
:101990000010024029B1064A92690243044B9A6141
:1019A00004E0034A92698243014B9A617047000048
:1019B0000010024030B500210022002400232D4DEC
:1019C0006D6805F00C0121B1042905D0082923D147
:1019D00005E0294D056022E0274D05601FE0254DFB
:1019E0006D6805F47012234D6D6805F4803402258E
:1019F00005EB92421CB9214D554305600BE01D4D8E
:101A00006D6805F400351DB11C4D5543056002E0BD
:101A1000194D5543056002E0174D056000BF00BF3A
:101A2000144D6D6805F0F0010909154D6B5C0568F2
:101A3000DD4045600F4D6D6805F4E061090A104D09
:101A40006B5C4568DD4085600A4D6D6805F460514A
:101A5000C90A0B4D6B5C4568DD40C560054D6D687E
:101A600005F44041890B074D6B5CC568B5FBF3F588
:101A7000056130BD0010024000127A0000093D00EF
:101A80002800002038000020704710B500F002F850
:101A900010BD00000CB50020019000903348006894
:101AA00040F480303149086000BF3048006800F4DD
:101AB000003000900198401C0190009818B90198DE
:101AC000B0F5A06FF1D12948006800F4003010B1E2
:101AD0000120009001E0002000900098012843D1EF
:101AE0002348006840F0100021490860084600685B
:101AF00020F0030008600846006840F0020008601B
:101B00001A484068194948600846406848600846D5
:101B1000406840F4806048600846406820F47C10CB
:101B200048600846406840F4E8104860084600688D
:101B300040F08070086000BF0C48006800F0007042
:101B40000028F9D00948406820F0030007494860A0
:101B50000846406840F00200486000BF0348406803
:101B600000F00C000828F9D10CBD00000010024064
:101B7000002002407047000010B51348006840F094
:101B800001001149086008464068104908400E49A4
:101B90004860084600680E4908400B49086008463E
:101BA000006820F4802008600846406820F4FE00A9
:101BB00048604FF41F008860FFF767FF4FF0006038
:101BC0000449086010BD0000001002400000FFF84A
:101BD000FFFFF6FE08ED00E010B501210320FFF73E
:101BE000C9FE40F2671013498880C7200880002092
:101BF000C88048804FF0804000F018F90121880724
:101C000000F04FF840F60F600A49888040F2CF702C
:101C100008800020C8804880074800F007F90122AA
:101C20001146054800F05AF80121034800F039F840
:101C300010BD00003C000020000400402DE9FC41E4
:101C40000121124800F039F801281DD1002414E0C8
:101C5000FFF7A2FD074600F0EDFB05462A460B46BE
:101C60000BA16846FEF7BCFA1DF804100A4800F004
:101C70004EFA142000F06CFA641C082CE8DB0121F9
:101C8000024800F00BF800BFBDE8FC8100040040F2
:101C9000252E33660A00000000380140CA43028244
:101CA000704721B1028842F00102028004E00288FC
:101CB0004FF6FE731A400280704730B5024600208E
:101CC00000230024158A05EA0103958905EA010429
:101CD00013B10CB1012000E0002030BD1AB183899E
:101CE0000B43838102E083898B438381704700002B
:101CF00070B5002400220023058C4FF6FE76354097
:101D00000584028C8388048B4FF68F752C40B51E9A
:101D10002C400D882C43751E2A400D892A434D887E
:101D20002A43144DA8420BD0134DA84208D0134D9E
:101D3000A84205D0124DA84202D0124DA84213D19C
:101D40004FF6F7752A404D892A434FF6FB752A4016
:101D50008D882A434FF6FF652B404FF6FF552B40E9
:101D60008D892B43CD892B4383800483CD88858641
:101D7000028470BD002C014000340140004001404D
:101D8000004401400048014070B5002400220023B7
:101D9000058C4FF6EF7635400584028C8388048BE2
:101DA00048F6FF752C404FF6FF452C400D884FF646
:101DB000FF7606EA05252C434FF6DF752A400D898C
:101DC00006EA05152A434D8806EA05152A43154DEE
:101DD000A84202D0144DA8421DD14FF67F752A406B
:101DE0004D894FF6FF7606EA05152A434FF6BF7573
:101DF0002A408D8806EA05152A434FF6FF352B4009
:101E00004FF2FF752B408D8906EA85052B43CD895E
:101E100006EA85052B4383800483CD8805870284E9
:101E200070BD0000002C01400034014000220288F7
:101E30001D4B98420ED01D4B98420BD0B0F1804FF5
:101E400008D01B4B984205D01A4B984202D01A4B2F
:101E5000984204D14FF68F731A404B881A43174BA0
:101E6000984207D0164B984204D04FF6FF431A40D1
:101E7000CB881A4302808B8883850B8803850A4BA5
:101E800098420BD0094B984208D00E4B984205D08F
:101E90000D4B984202D00D4B984201D10B7A03862C
:101EA0000123838270470000002C01400034014070
:101EB0000004004000080040000C004000100040FA
:101EC000001400400040014000440140004801402F
:101ED0001FB501218803FFF75DFD4FF416500090F8
:101EE0000020ADF80400ADF80600ADF80800ADF82C
:101EF0000C000C20ADF80A006946074800F096F87F
:101F0000012240F22551044800F06BF801210248FB
:101F100000F031F81FBD00000038014010B540F25C
:101F200025510A4800F033F801280DD1074800F088
:101F3000E9F807490870FFF72FFC0649086040F2EE
:101F40002551024800F008F810BD0000003801409B
:101F50001C0000201000002010B50022002340F6D5
:101F60006A14A14200D100BF0A1201249440A3B216
:101F7000DC43048010BD21B1828942F40052828189
:101F800004E082894DF6FF731A408281704770B574
:101F90000246002400230025002040F66A16B142C4
:101FA00000D100BFC1F3421501F01F03012606FA5C
:101FB00003F3012D02D19689334006E0022D02D1B0
:101FC000168A334001E0968A33400C12012606FA45
:101FD00004F41688344013B10CB1012000E0002055
:101FE00070BDF0B50346002400260025002040F611
:101FF0006A17B94200D100BF1846C1F3421401F07C
:102000001F06012707FA06F5012C01D10C3004E068
:10201000022C01D1103000E014301AB107682F43B0
:10202000076002E00768AF430760F0BD2DE9F047A5
:1020300086B005460E460024A24600BFA1460027F2
:10204000B08900B100BF2F462C8A4CF6FF700440C7
:10205000F08804432C82AC894EF6F3100440B0881B
:1020600031890843718908430443AC81AC8A4FF637
:10207000FF400440B0890443AC8201A8FFF79AFCFA
:102080001F48874202D1DDF810A001E0DDF80CA066
:10209000A88900F4004040B10AEBCA0000EB0A1026
:1020A00031684900B0FBF1F807E00AEBCA0000EB29
:1020B0000A1031688900B0FBF1F86420B8FBF0F039
:1020C00004012009642101FB1089A88900F4004063
:1020D00040B1322000EBC900B0FBF1F000F0070086
:1020E000044308E0322000EB09106421B0FBF1F05A
:1020F00000F00F0004432C8106B0BDE8F08700001B
:102100000038014001468888C0F308007047C1F3D9
:1021100008028280704700BFFEE7490050EAC120F4
:1021200018BF04204A0D18BF40F0010040F2FF72B2
:10213000B2EB515F08BF40F00200012808BF052044
:10214000704730380A2801D20120704700207047BC
:102150004FF47A51484300BF011EA0F10100FBD1AA
:102160007047FFF759FAFFF7B3FEFFF72BF9FFF7B8
:1021700033FDFFF7E1FBFFF77FF8FFF789FB00BFB7
:10218000FEE7000010B500290AD00878002807D023
:1021900005487844FEF71EFC002801D0002010BD41
:1021A0000248784410BD0000460400003E040000D0
:1021B00021F00042A2F16052B2F5801F01F000430D
:1021C00028BFD2F17F6C0BD95FEA001C43EAC20240
:1021D00042EB507018BF704728BF20F001007047D5
:1021E000B2F5801FBCBF184670474FEA410C1CF582
:1021F000001F02D2084600F08EB970B500F0C6F894
:1022000000000089FFF7F6BF4FF00040A0F5800006
:102210007047B0FA80F310FA03F10AD0C3F11D033E
:1022200003F580634FEA41504FEA035202EBD1219C
:1022300070474FF000007047DFF848C170B51CEAE6
:10224000111E1EBF1CEA13159EEA0C0F95EA0C0F17
:1022500000F06F8081EA030423EA4C134EEAD47E37
:1022600021EA4C1141F4801143F48013AE44A1FBE8
:10227000024CA0FB0365AEF17F7E361955EB0C05D1
:10228000A1FB034C4CF10003A0FB021C16EB0C0657
:10229000654153F10003094218BF46F0010613F4EB
:1022A000007F0BD14FEA03314FEA0530340341EA96
:1022B000155140EA16506FF003020AE04FEAC321BD
:1022C0004FEAC520F40241EA555140EA56506FF0FA
:1022D000020202EB2E4201EB025585EACE710AD0D2
:1022E0005FEA440C18BF24F0004450F1000041F1B3
:1022F000000120EAD47040F2FE7C624500D270BD3D
:10230000A84214BF4FF080444FF04044002E08BF55
:102310000024BEF1806FA8BFA1F1C041BDE87040AC
:1023200080F282804FF0000001F1C04101F00041D5
:1023300070479EEA0C0F0CEA131518BF95EA0C0FB4
:1023400006D04FF0000081EA030E0EF0004170BD90
:1023500000F01CF88900013E00F007B800F009B851
:102360004FEA430C5FEA5C5C08D081EA030100F0AD
:102370005BB84FEA410C5FEA5C5CF6D14FF00000BD
:10238000014970470000FF070000F87F0EF1020EC0
:102390002EF0030E5EF8046B364205D4012A43EB9F
:1023A000030515F5001F12D8012841EB010C1CF59F
:1023B000001F0CD80ED14FEAD17C15F5001F0CEB95
:1023C0004C0C0CF1020C08BF4CEBD37C04E04FF03A
:1023D000080C01E04FEAD37C0CEB4C0526FA05F61D
:1023E00006F00706B6F1040C06D20EEB860CBDE82B
:1023F00070404CF0010C6047DFE80CF0090B020262
:102400004FF000414FF00000A1F5002170BD1946CA
:102410001046012851EB010418BFD4F5001484BF05
:10242000002001F0004170BD0808A0F500114FEA3E
:102430003101704743004FEAD30C4FEA3C0C434054
:102440001FBF40070CF1605113F0FE4F70471CF0A6
:10245000006F03D100200CF0004170470CF00043E6
:1024600043EA507010B540EACC0000F00EF800BF0F
:10247000000000924FEA0001FFF7D6BF4FF0004185
:102480004FF00000A1F5002170470EF1020E2EF072
:10249000030E5EF8044B244204D44FEA4102B2F129
:1024A0007F4F11D84FEA4003B3F17F4F0CD80ED1C4
:1024B0004FEAD07CB2F17F4F0CEB4C0C0CF1020CCC
:1024C00008BF4CEBD17C04E04FF0080C01E04FEA70
:1024D000D17C0CEB4C0324FA03F404F00704B4F1B0
:1024E000040C06D20EEB840CBDE810404CF0010C3D
:1024F0006047DFE80CF0070802024FF00040A0F54B
:10250000800010BD0846420018BFD2F1807288BF1B
:1025100000F0004010BDFF2141EAD050C0057047D7
:10252000FDF7D5BF02400000000000A00000000041
:1025300005400000000000C8000000000C40000042
:102540000000409C00000000194000000020BCBEBC
:102550000000000034400000BFC91B8E00000004D2
:10256000B5400000504BCFD06607E2CF010000001D
:102570006C4100003E8251AADFEEA734010000004A
:10258000D9420000DCB5A0E23A301F97FFFFFFFF01
:10259000B4450000FD25A0C8E9A3C14FFFFFFFFF20
:1025A000FF3F00000000008000000000FF3F00002F
:1025B0000000008000000000F4250008000000205A
:1025C0003C00000028010008302600083C000020E4
:1025D000B4060000440100081C0000004300000095
:1025E000F8FFFFFF0C0000000E0000000F000000CD
:1025F0002E000000000000000000000000000000AD
:1026000000000000000000000000000000000000CA
:10261000000000000000B0410000000000000000C9
:102620000102030401020304060708090204060864
:04000005080001A14D
:00000001FF
